:100000000C942D000C9478000C9478000C947800DB
:100010000C9478000C9478000C9478000C94780080
:100020000C9478000C9478000C9478000C94780070
:100030000C9478000C9478000C9478000C94780060
:100040000C9478000C9478000C9478000C94780050
:100050000C94780000600061800011241FBECFE581
:10006000D8E0DEBFCDBFE4E5F0E040E017C0B591D9
:10007000A59135912591059107FD0CC0959185912C
:10008000EF01F92FE82F05900D92A217B307D9F7CA
:10009000FE0104C01D92A217B307E1F7E935F4078A
:0E00A00031F70E9457000C945500F894FFCFE2
:1000AE000E946F008FEF84BB0E94740080936000EB
:1000BE008F3411F4A89AF8CF863411F4A898F4CF9F
:1000CE00813411F4A99AF0CF823471F7A998ECCF4C
:0A00DE00BE9A8DB181648DB90895BA
:0800E800779BFECF8FB1089554
:0400F0000C9400006C
:00000001FF
