:100000000C942D000C94C8020C94C8020C94C802E5
:100010000C94C8020C94C8020C94C8020C94C80238
:100020000C94C8020C94C8020C94C8020C94C80228
:100030000C94C8020C9427020C94C8020C94C802B9
:100040000C94C8020C94C8020C94C8020C94C80208
:100050000C94C80200600061800011241FBECFE52F
:10006000D8E0DEBFCDBFE4E5F0E040E017C0B591D9
:10007000A59135912591059107FD0CC0959185912C
:10008000EF01F92FE82F05900D92A217B307D9F7CA
:10009000FE0104C01D92A217B307E1F7E935F4078A
:0E00A00031F70E9481020C945500F894FFCFB6
:1000AE000E94A50258F00E949E0240F029F45F3F84
:1000BE0029F00C94B30251110C94AD020C94C502AC
:1000CE000E944E0268F39923B1F3552391F3951BC9
:1000DE00550BBB27AA2762177307840738F09F5F5B
:1000EE005F4F220F331F441FAA1FA9F335D00E2EC8
:1000FE003AF0E0E832D091505040E695001CCAF735
:10010E002BD0FE2F29D0660F771F881FBB1F2617F7
:10011E0037074807AB07B0E809F0BB0B802DBF01CE
:10012E00FF2793585F4F3AF09E3F510578F00C949D
:10013E00B3020C94AD025F3FE4F3983ED4F3869580
:10014E0077956795B795F7959F5FC9F7880F911DBE
:10015E009695879597F90895E1E0660F771F881FAA
:10016E00BB1F621773078407BA0720F0621B730B5D
:0C017E00840BBA0BEE1F88F7E095089583
:10018A000E949E0238F00E94A50220F0952311F0E9
:10019A000C94B3020C94C50211240C94AD020E9473
:1001AA004E0270F3959FC1F3950F50E0551F629F61
:1001BA00F001729FBB27F00DB11D639FAA27F00DB6
:1001CA00B11DAA1F649F6627B00DA11D661F829FDD
:1001DA002227B00DA11D621F739FB00DA11D621FC2
:1001EA00839FA00D611D221F749F3327A00D611DDF
:1001FA00231F849F600D211D822F762F6A2F1124C1
:10020A009F5750409AF0F1F088234AF0EE0FFF1FF3
:10021A00BB1F661F771F881F91505040A9F79E3F4A
:10022A00510580F00C94B3020C94AD025F3FE4F3E5
:10023A00983ED4F3869577956795B795F795E795A0
:10024A009F5FC1F7FE2B880F911D9695879597F9A9
:02025A00089505
:10025C000E949E0238F00E94A50220F039F49F3FC4
:10026C0019F426F40C94C5020EF4E095E7FB0C94FB
:10027C00B302E92F0E944E0258F3BA1762077307B4
:10028C008407950720F079F4A6F50C94AC020EF4D3
:10029C00E0950B2EBA2FA02D0B01B90190010C018A
:1002AC00CA01A0011124FF27591B99F0593F50F4A2
:1002BC00503E68F11A16F040A22F232F342F4427FA
:1002CC00585FF3CF469537952795A795F0405395F2
:1002DC00C9F77EF41F16BA0B620B730B840BBAF0C2
:1002EC009150A1F0FF0FBB1F661F771F881FC2F72D
:1002FC000EC0BA0F621F731F841F48F48795779541
:10030C006795B795F7959E3F08F0B0CF9395880FFA
:0C031C0008F09927EE0F9795879508953B
:10032800E89409C097FB3EF4909580957095619587
:100338007F4F8F4F9F4F9923A9F0F92F96E9BB273D
:100348009395F695879577956795B795F111F8CFB9
:10035800FAF4BB0F11F460FF1BC06F5F7F4F8F4F24
:100368009F4F16C0882311F096E911C0772321F01A
:100378009EE8872F762F05C0662371F096E8862FB2
:1003880070E060E02AF09A95660F771F881FDAF709
:0A039800880F9695879597F9089550
:1003A2000E94560288F09F5798F0B92F9927B751AB
:1003B200B0F0E1F0660F771F881F991F1AF0BA9507
:1003C200C9F714C0B13091F00E94AC02B1E00895B7
:1003D2000C94AC02672F782F8827B85F39F0B93FA9
:1003E200CCF3869577956795B395D9F73EF49095BA
:0E03F2008095709561957F4F8F4F9F4F0895B6
:10040000549A579ABC01990F880B990B0E94960138
:1004100020E030E040E851E40E94C1029B01AC01C1
:1004200060E074E284EF9AE40E94BD0220E030E0D4
:1004300040E85FE30E9490020E9497026F3F7105BF
:0E04400009F014F469B9089569B970BD089502
:10044E001F920F920FB60F9211242F933F934F933B
:10045E005F936F937F938F939F93AF93BF93EF931E
:10046E00FF938CB1809360000E94B902FF91EF91CF
:10047E00BF91AF919F918F917F916F915F914F91AE
:0E048E003F912F910F900FBE0F901F90189569
:10049C0057FD9058440F551F59F05F3F71F0479529
:1004AC00880F97FB991F61F09F3F79F0879508950E
:1004BC00121613061406551FF2CF4695F1DF08C02D
:1004CC00161617061806991FF1CF8695710561054A
:0404DC0008940895E3
:1004E000092E0394000C11F4882352F0BB0F40F442
:1004F000BF2B11F460FF04C06F5F7F4F8F4F9F4F82
:0205000008955C
:100502000E948902789480E895E20E940002FFCF5F
:0E05120087B3806B87BB8DB181658DB908956D
:0E0520005058BB27AA270E943F010C9470027E
:0E052E000E94D1016894B1110C94AD020895A1
:0E053C0000240A9416161706180609060895DC
:0E054A0000240A9412161306140605060895DE
:0E055800E894BB2766277727CB0197F9089513
:0C05660097F99F6780E870E060E008955E
:080572008FB9779BFECF0895BD
:08057A000E9467000C9470025E
:080582000E94D4000C947002E9
:06058A009FEF80EC0895D4
:040590000C940000C7
:00000001FF
